:020000040800F2
:1000000000800120310400088104000881040008F8
:100010008104000881040008810400080000000039
:100020000000000000000000000000008104000843
:1000300000000000000000008104000855030008D3
:10004000810400088104000881040008810400087C
:10005000810400088104000881040008810400086C
:10006000810400088104000881040008810400085C
:10007000810400088104000881040008810400084C
:10008000810400088104000881040008810400083C
:10009000810400088104000881040008810400082C
:1000A000810400088104000881040008810400081C
:1000B000810400088104000881040008810400080C
:1000C00081040008810400088104000881040008FC
:1000D00081040008810400088104000881040008EC
:1000E00081040008810400088104000881040008DC
:1000F00081040008810400088104000881040008CC
:1001000081040008810400088104000881040008BB
:1001100081040008810400088104000881040008AB
:10012000810400088104000881040008810400089B
:10013000810400088104000881040008810400088B
:10014000810400088104000881040008810400087B
:10015000810400088104000881040008810400086B
:10016000810400088104000881040008810400085B
:1001700081040008810400088104000800000000D8
:0C018000810400088104000881040008CC
:10018C0010B5054C237833B9044B13B10448AFF3C5
:10019C0000800123237010BD080000200000000027
:1001AC008404000808B5034B1BB103490348AFF3A3
:1001BC00008008BD000000000C0000208404000832
:1001CC0070B50D4D0D4C641BA4100026A64209D130
:1001DC000B4D0C4C00F050F9641BA4100026A642E9
:1001EC0005D170BD55F8043B98470136EEE755F83C
:1001FC00043B98470136F2E79C0400089C04000875
:10020C009C040008A404000870477047024B13B10B
:10021C00024800F005B870470000000039020008E1
:10022C00002301461A46184600F014B838B5074D9D
:10023C00074C641BA4101CB9BDE8384000F022B96F
:10024C00013C55F824309847F5E700BFA40400089A
:10025C00A80400082DE9F047DFF874A00646DAF888
:10026C00000098460F469146FFF7CEFF164B1C68D0
:10027C000CB9164C1C606568DAF800001F2D05DD02
:10028C00FFF7C3FF4FF0FF30BDE8F0879EB104EBE2
:10029C0085010122C1F88890D4F88831AA40134313
:1002AC00C4F88831022EC1F8088102BFD4F88C3111
:1002BC001343C4F88C316B1C0235636044F8257011
:1002CC00FFF7A3FF0020DFE7280000202C00002010
:1002DC000000002000B585B000F090F800240294D6
:1002EC0001940125009523462A4605214FF09040A4
:1002FC0000F032F8029401950095234622460D2118
:10030C000F4800F029F800F085F80D210C4800F09A
:10031C006CF858B90B4B1A6840F6B7339A42F4D9BB
:10032C0005214FF0904000F059F8EEE7054B002204
:10033C001A6005214FF0904000F04AF8EAE700BF40
:10034C000008004804000020024A136801331360BF
:10035C00704700BF0400002010B504684FEA410E3E
:10036C004FF0030C0CFA0EFC24EA0C040460046835
:10037C0002FA0EF214430460446801228A4024EA13
:10038C000204446044688B401C434460836823EA45
:10039C000C03836083689DF8084004FA0EF4234331
:1003AC008360C36823EA0C03C360C3689DF80CC068
:1003BC000CFA0EFC43EA0C03C360436923EA020304
:1003CC00436143699DF810208A401343436110BD7B
:1003DC00436901228A4013434361704743690122F8
:1003EC008A4023EA020343617047026901238B4070
:1003FC001A4201D00020704701207047044BDA6C80
:10040C0042F00102DA64DA6C42F00402DA647047FA
:10041C00001002404FF0E02340F69F725A61072211
:10042C001A6170470D488546AFF300800C480D49A2
:10043C000D4A002302E0D458C4500433C4188C4233
:10044C00F9D30A4A0A4C002301E013600432A24299
:10045C00FBD3FFF7B5FEFFF73DFFFEE70080012061
:10046C000000002008000020A8040008080000205C
:10047C00BC010020FEE70000F8B500BFF8BC08BCCA
:10048C009E467047F8B500BFF8BC08BC9E46704746
:08049C0019020008B10100087B
:0404A4008D010008BE
:0804A8002400002011000000F7
:0400000508000431BA
:00000001FF
